{"abi":[{"type":"receive","stateMutability":"payable"},{"type":"function","name":"balances","inputs":[{"name":"","type":"address","internalType":"address"}],"outputs":[{"name":"","type":"uint256","internalType":"uint256"}],"stateMutability":"view"},{"type":"function","name":"deposit","inputs":[],"outputs":[],"stateMutability":"payable"},{"type":"function","name":"getUserBalance","inputs":[{"name":"user","type":"address","internalType":"address"}],"outputs":[{"name":"","type":"uint256","internalType":"uint256"}],"stateMutability":"view"},{"type":"function","name":"getVaultBalance","inputs":[],"outputs":[{"name":"","type":"uint256","internalType":"uint256"}],"stateMutability":"view"},{"type":"function","name":"withdraw","inputs":[{"name":"amount","type":"uint256","internalType":"uint256"}],"outputs":[],"stateMutability":"nonpayable"},{"type":"event","name":"Deposit","inputs":[{"name":"user","type":"address","indexed":true,"internalType":"address"},{"name":"amount","type":"uint256","indexed":false,"internalType":"uint256"}],"anonymous":false},{"type":"event","name":"Withdraw","inputs":[{"name":"user","type":"address","indexed":true,"internalType":"address"},{"name":"amount","type":"uint256","indexed":false,"internalType":"uint256"}],"anonymous":false}],"bytecode":{"object":"0x6080604052348015600e575f5ffd5b506107a48061001c5f395ff3fe60806040526004361061004d575f3560e01c806327e235e3146100605780632e1a7d4d1461009c57806347734892146100c4578063d0e30db014610100578063ed12e8ef1461010a5761005c565b3661005c5761005a610134565b005b5f5ffd5b34801561006b575f5ffd5b50610086600480360381019061008191906104a1565b610218565b60405161009391906104e4565b60405180910390f35b3480156100a7575f5ffd5b506100c260048036038101906100bd9190610527565b61022c565b005b3480156100cf575f5ffd5b506100ea60048036038101906100e591906104a1565b6103f7565b6040516100f791906104e4565b60405180910390f35b610108610134565b005b348015610115575f5ffd5b5061011e61043c565b60405161012b91906104e4565b60405180910390f35b5f3411610176576040517f08c379a000000000000000000000000000000000000000000000000000000000815260040161016d906105ac565b60405180910390fd5b345f5f3373ffffffffffffffffffffffffffffffffffffffff1673ffffffffffffffffffffffffffffffffffffffff1681526020019081526020015f205f8282546101c191906105f7565b925050819055503373ffffffffffffffffffffffffffffffffffffffff167fe1fffcc4923d04b559f4d29a8bfc6cda04eb5b0d3c460751c2402c5c5cc9109c3460405161020e91906104e4565b60405180910390a2565b5f602052805f5260405f205f915090505481565b805f5f3373ffffffffffffffffffffffffffffffffffffffff1673ffffffffffffffffffffffffffffffffffffffff1681526020019081526020015f205410156102ab576040517f08c379a00000000000000000000000000000000000000000000000000000000081526004016102a290610674565b60405180910390fd5b5f3373ffffffffffffffffffffffffffffffffffffffff16826040516102d0906106bf565b5f6040518083038185875af1925050503d805f811461030a576040519150601f19603f3d011682016040523d82523d5f602084013e61030f565b606091505b5050905080610353576040517f08c379a000000000000000000000000000000000000000000000000000000000815260040161034a9061071d565b60405180910390fd5b815f5f3373ffffffffffffffffffffffffffffffffffffffff1673ffffffffffffffffffffffffffffffffffffffff1681526020019081526020015f205f82825461039e919061073b565b925050819055503373ffffffffffffffffffffffffffffffffffffffff167f884edad9ce6fa2440d8a54cc123490eb96d2768479d49ff9c7366125a9424364836040516103eb91906104e4565b60405180910390a25050565b5f5f5f8373ffffffffffffffffffffffffffffffffffffffff1673ffffffffffffffffffffffffffffffffffffffff1681526020019081526020015f20549050919050565b5f47905090565b5f5ffd5b5f73ffffffffffffffffffffffffffffffffffffffff82169050919050565b5f61047082610447565b9050919050565b61048081610466565b811461048a575f5ffd5b50565b5f8135905061049b81610477565b92915050565b5f602082840312156104b6576104b5610443565b5b5f6104c38482850161048d565b91505092915050565b5f819050919050565b6104de816104cc565b82525050565b5f6020820190506104f75f8301846104d5565b92915050565b610506816104cc565b8114610510575f5ffd5b50565b5f81359050610521816104fd565b92915050565b5f6020828403121561053c5761053b610443565b5b5f61054984828501610513565b91505092915050565b5f82825260208201905092915050565b7f4d757374206465706f73697420736f6d657468696e67000000000000000000005f82015250565b5f610596601683610552565b91506105a182610562565b602082019050919050565b5f6020820190508181035f8301526105c38161058a565b9050919050565b7f4e487b71000000000000000000000000000000000000000000000000000000005f52601160045260245ffd5b5f610601826104cc565b915061060c836104cc565b9250828201905080821115610624576106236105ca565b5b92915050565b7f496e73756666696369656e742062616c616e63650000000000000000000000005f82015250565b5f61065e601483610552565b91506106698261062a565b602082019050919050565b5f6020820190508181035f83015261068b81610652565b9050919050565b5f81905092915050565b50565b5f6106aa5f83610692565b91506106b58261069c565b5f82019050919050565b5f6106c98261069f565b9150819050919050565b7f5472616e73666572206661696c656400000000000000000000000000000000005f82015250565b5f610707600f83610552565b9150610712826106d3565b602082019050919050565b5f6020820190508181035f830152610734816106fb565b9050919050565b5f610745826104cc565b9150610750836104cc565b9250828203905081811115610768576107676105ca565b5b9291505056fea2646970667358221220b528ff4ea45f97b00c226f990cebd5297e1e9611e359db3ff24d0cdaa4c951ca64736f6c634300081e0033","linkReferences":{}},"methodIdentifiers":{"balances(address)":"27e235e3","deposit()":"d0e30db0","getUserBalance(address)":"47734892","getVaultBalance()":"ed12e8ef","withdraw(uint256)":"2e1a7d4d"},"id":0}